{
  "_format": "hh-sol-artifact-1",
  "contractName": "Transactions",
  "sourceName": "contracts/Transactions.sol",
  "abi": [
    {
      "anonymous": false,
      "inputs": [
        {
          "indexed": false,
          "internalType": "address",
          "name": "from",
          "type": "address"
        },
        {
          "indexed": false,
          "internalType": "address",
          "name": "receiver",
          "type": "address"
        },
        {
          "indexed": false,
          "internalType": "uint256",
          "name": "amount",
          "type": "uint256"
        },
        {
          "indexed": false,
          "internalType": "string",
          "name": "message",
          "type": "string"
        },
        {
          "indexed": false,
          "internalType": "uint256",
          "name": "timestamp",
          "type": "uint256"
        },
        {
          "indexed": false,
          "internalType": "string",
          "name": "keyword",
          "type": "string"
        }
      ],
      "name": "OnTransfer",
      "type": "event"
    },
    {
      "inputs": [],
      "name": "getAllTransactions",
      "outputs": [
        {
          "components": [
            {
              "internalType": "address",
              "name": "sender",
              "type": "address"
            },
            {
              "internalType": "address",
              "name": "receiver",
              "type": "address"
            },
            {
              "internalType": "uint256",
              "name": "amount",
              "type": "uint256"
            },
            {
              "internalType": "uint256",
              "name": "timestamp",
              "type": "uint256"
            },
            {
              "internalType": "string",
              "name": "message",
              "type": "string"
            },
            {
              "internalType": "string",
              "name": "keyword",
              "type": "string"
            }
          ],
          "internalType": "struct Transactions.Transfer[]",
          "name": "",
          "type": "tuple[]"
        }
      ],
      "stateMutability": "view",
      "type": "function"
    },
    {
      "inputs": [],
      "name": "getTransactionCount",
      "outputs": [
        {
          "internalType": "uint256",
          "name": "",
          "type": "uint256"
        }
      ],
      "stateMutability": "view",
      "type": "function"
    },
    {
      "inputs": [
        {
          "internalType": "address payable",
          "name": "_receiver",
          "type": "address"
        },
        {
          "internalType": "uint256",
          "name": "_amount",
          "type": "uint256"
        },
        {
          "internalType": "string",
          "name": "_message",
          "type": "string"
        },
        {
          "internalType": "string",
          "name": "_keyword",
          "type": "string"
        }
      ],
      "name": "newTransaction",
      "outputs": [],
      "stateMutability": "nonpayable",
      "type": "function"
    }
  ],
  "bytecode": "0x608060405234801561001057600080fd5b50610bed806100206000396000f3fe608060405234801561001057600080fd5b50600436106100415760003560e01c806327506f53146100465780632e7700f0146100645780637ca9f30c14610082575b600080fd5b61004e61009e565b60405161005b9190610929565b60405180910390f35b61006c6102e1565b604051610079919061094b565b60405180910390f35b61009c60048036038101906100979190610651565b6102ea565b005b60606001805480602002602001604051908101604052809291908181526020016000905b828210156102d857838290600052602060002090600602016040518060c00160405290816000820160009054906101000a900473ffffffffffffffffffffffffffffffffffffffff1673ffffffffffffffffffffffffffffffffffffffff1673ffffffffffffffffffffffffffffffffffffffff1681526020016001820160009054906101000a900473ffffffffffffffffffffffffffffffffffffffff1673ffffffffffffffffffffffffffffffffffffffff1673ffffffffffffffffffffffffffffffffffffffff16815260200160028201548152602001600382015481526020016004820180546101b590610ae8565b80601f01602080910402602001604051908101604052809291908181526020018280546101e190610ae8565b801561022e5780601f106102035761010080835404028352916020019161022e565b820191906000526020600020905b81548152906001019060200180831161021157829003601f168201915b5050505050815260200160058201805461024790610ae8565b80601f016020809104026020016040519081016040528092919081815260200182805461027390610ae8565b80156102c05780601f10610295576101008083540402835291602001916102c0565b820191906000526020600020905b8154815290600101906020018083116102a357829003601f168201915b505050505081525050815260200190600101906100c2565b50505050905090565b60008054905090565b60016000808282546102fc91906109cc565b9250508190555060016040518060c001604052803373ffffffffffffffffffffffffffffffffffffffff1681526020018873ffffffffffffffffffffffffffffffffffffffff16815260200187815260200142815260200186868080601f016020809104026020016040519081016040528093929190818152602001838380828437600081840152601f19601f82011690508083019250505050505050815260200184848080601f016020809104026020016040519081016040528093929190818152602001838380828437600081840152601f19601f82011690508083019250505050505050815250908060018154018082558091505060019003906000526020600020906006020160009091909190915060008201518160000160006101000a81548173ffffffffffffffffffffffffffffffffffffffff021916908373ffffffffffffffffffffffffffffffffffffffff16021790555060208201518160010160006101000a81548173ffffffffffffffffffffffffffffffffffffffff021916908373ffffffffffffffffffffffffffffffffffffffff160217905550604082015181600201556060820151816003015560808201518160040190805190602001906104cd92919061053a565b5060a08201518160050190805190602001906104ea92919061053a565b5050507f86ffe91e8749637f574992bb1e943fa18252e5b90789192940f65f043e1c6b55338787878742888860405161052a9897969594939291906108b6565b60405180910390a1505050505050565b82805461054690610ae8565b90600052602060002090601f01602090048101928261056857600085556105af565b82601f1061058157805160ff19168380011785556105af565b828001600101855582156105af579182015b828111156105ae578251825591602001919060010190610593565b5b5090506105bc91906105c0565b5090565b5b808211156105d95760008160009055506001016105c1565b5090565b6000813590506105ec81610b89565b92915050565b60008083601f84011261060457600080fd5b8235905067ffffffffffffffff81111561061d57600080fd5b60208301915083600182028301111561063557600080fd5b9250929050565b60008135905061064b81610ba0565b92915050565b6000806000806000806080878903121561066a57600080fd5b600061067889828a016105dd565b965050602061068989828a0161063c565b955050604087013567ffffffffffffffff8111156106a657600080fd5b6106b289828a016105f2565b9450945050606087013567ffffffffffffffff8111156106d157600080fd5b6106dd89828a016105f2565b92509250509295509295509295565b60006106f88383610808565b905092915050565b61070981610a70565b82525050565b61071881610a22565b82525050565b61072781610a22565b82525050565b600061073882610976565b6107428185610999565b93508360208202850161075485610966565b8060005b85811015610790578484038952815161077185826106ec565b945061077c8361098c565b925060208a01995050600181019050610758565b50829750879550505050505092915050565b60006107ae83856109bb565b93506107bb838584610aa6565b6107c483610b78565b840190509392505050565b60006107da82610981565b6107e481856109aa565b93506107f4818560208601610ab5565b6107fd81610b78565b840191505092915050565b600060c083016000830151610820600086018261070f565b506020830151610833602086018261070f565b5060408301516108466040860182610898565b5060608301516108596060860182610898565b506080830151848203608086015261087182826107cf565b91505060a083015184820360a086015261088b82826107cf565b9150508091505092915050565b6108a181610a66565b82525050565b6108b081610a66565b82525050565b600060c0820190506108cb600083018b61071e565b6108d8602083018a610700565b6108e560408301896108a7565b81810360608301526108f88187896107a2565b905061090760808301866108a7565b81810360a083015261091a8184866107a2565b90509998505050505050505050565b60006020820190508181036000830152610943818461072d565b905092915050565b600060208201905061096060008301846108a7565b92915050565b6000819050602082019050919050565b600081519050919050565b600081519050919050565b6000602082019050919050565b600082825260208201905092915050565b600082825260208201905092915050565b600082825260208201905092915050565b60006109d782610a66565b91506109e283610a66565b9250827fffffffffffffffffffffffffffffffffffffffffffffffffffffffffffffffff03821115610a1757610a16610b1a565b5b828201905092915050565b6000610a2d82610a46565b9050919050565b6000610a3f82610a46565b9050919050565b600073ffffffffffffffffffffffffffffffffffffffff82169050919050565b6000819050919050565b6000610a7b82610a82565b9050919050565b6000610a8d82610a94565b9050919050565b6000610a9f82610a46565b9050919050565b82818337600083830152505050565b60005b83811015610ad3578082015181840152602081019050610ab8565b83811115610ae2576000848401525b50505050565b60006002820490506001821680610b0057607f821691505b60208210811415610b1457610b13610b49565b5b50919050565b7f4e487b7100000000000000000000000000000000000000000000000000000000600052601160045260246000fd5b7f4e487b7100000000000000000000000000000000000000000000000000000000600052602260045260246000fd5b6000601f19601f8301169050919050565b610b9281610a34565b8114610b9d57600080fd5b50565b610ba981610a66565b8114610bb457600080fd5b5056fea26469706673582212206c92fd93a4a61089b5ee0cc2aed4d561b5874916f383850e79c0f18d8e4bf5d564736f6c63430008040033",
  "linkReferences": {},
  "deployedLinkReferences": {}
}